{
  "contractName": "ParcelsNetwork",
  "abi": [
    {
      "constant": true,
      "inputs": [
        {
          "name": "",
          "type": "address"
        }
      ],
      "name": "drivers",
      "outputs": [
        {
          "name": "isKYC",
          "type": "bool"
        },
        {
          "name": "stakedAmount",
          "type": "uint256"
        },
        {
          "name": "rating",
          "type": "uint256"
        }
      ],
      "payable": false,
      "stateMutability": "view",
      "type": "function"
    },
    {
      "constant": false,
      "inputs": [],
      "name": "renounceOwnership",
      "outputs": [],
      "payable": false,
      "stateMutability": "nonpayable",
      "type": "function"
    },
    {
      "constant": true,
      "inputs": [],
      "name": "owner",
      "outputs": [
        {
          "name": "",
          "type": "address"
        }
      ],
      "payable": false,
      "stateMutability": "view",
      "type": "function"
    },
    {
      "constant": true,
      "inputs": [],
      "name": "isOwner",
      "outputs": [
        {
          "name": "",
          "type": "bool"
        }
      ],
      "payable": false,
      "stateMutability": "view",
      "type": "function"
    },
    {
      "constant": true,
      "inputs": [
        {
          "name": "",
          "type": "address"
        }
      ],
      "name": "authorizedCarrierAddresses",
      "outputs": [
        {
          "name": "",
          "type": "bool"
        }
      ],
      "payable": false,
      "stateMutability": "view",
      "type": "function"
    },
    {
      "constant": true,
      "inputs": [
        {
          "name": "",
          "type": "address"
        }
      ],
      "name": "authorizedKYCValidatorsAddresses",
      "outputs": [
        {
          "name": "",
          "type": "bool"
        }
      ],
      "payable": false,
      "stateMutability": "view",
      "type": "function"
    },
    {
      "constant": false,
      "inputs": [
        {
          "name": "newOwner",
          "type": "address"
        }
      ],
      "name": "transferOwnership",
      "outputs": [],
      "payable": false,
      "stateMutability": "nonpayable",
      "type": "function"
    },
    {
      "inputs": [],
      "payable": false,
      "stateMutability": "nonpayable",
      "type": "constructor"
    },
    {
      "anonymous": false,
      "inputs": [
        {
          "indexed": false,
          "name": "driverAddress",
          "type": "address"
        }
      ],
      "name": "KYCRegistered",
      "type": "event"
    },
    {
      "anonymous": false,
      "inputs": [
        {
          "indexed": false,
          "name": "driverAddress",
          "type": "address"
        }
      ],
      "name": "KYCRevoked",
      "type": "event"
    },
    {
      "anonymous": false,
      "inputs": [
        {
          "indexed": false,
          "name": "driverAddress",
          "type": "address"
        },
        {
          "indexed": false,
          "name": "stakedAmount",
          "type": "uint256"
        }
      ],
      "name": "DriverStaked",
      "type": "event"
    },
    {
      "anonymous": false,
      "inputs": [
        {
          "indexed": false,
          "name": "parcelId",
          "type": "uint256"
        },
        {
          "indexed": false,
          "name": "driverAddress",
          "type": "address"
        }
      ],
      "name": "ParcelRegistered",
      "type": "event"
    },
    {
      "anonymous": false,
      "inputs": [
        {
          "indexed": false,
          "name": "parcelId",
          "type": "uint256"
        },
        {
          "indexed": false,
          "name": "driverAddress",
          "type": "address"
        },
        {
          "indexed": false,
          "name": "payedAmount",
          "type": "uint256"
        }
      ],
      "name": "ParcelReceived",
      "type": "event"
    },
    {
      "anonymous": false,
      "inputs": [
        {
          "indexed": false,
          "name": "_msg",
          "type": "bytes32"
        }
      ],
      "name": "debugBytes32",
      "type": "event"
    },
    {
      "anonymous": false,
      "inputs": [
        {
          "indexed": false,
          "name": "_msg",
          "type": "bytes"
        }
      ],
      "name": "debugBytes",
      "type": "event"
    },
    {
      "anonymous": false,
      "inputs": [
        {
          "indexed": false,
          "name": "_msg",
          "type": "string"
        }
      ],
      "name": "debugString",
      "type": "event"
    },
    {
      "anonymous": false,
      "inputs": [
        {
          "indexed": false,
          "name": "_address",
          "type": "address"
        }
      ],
      "name": "debugAddress",
      "type": "event"
    },
    {
      "anonymous": false,
      "inputs": [
        {
          "indexed": true,
          "name": "previousOwner",
          "type": "address"
        },
        {
          "indexed": true,
          "name": "newOwner",
          "type": "address"
        }
      ],
      "name": "OwnershipTransferred",
      "type": "event"
    },
    {
      "constant": false,
      "inputs": [
        {
          "name": "kycValidator",
          "type": "address"
        }
      ],
      "name": "addKYCValidator",
      "outputs": [],
      "payable": false,
      "stateMutability": "nonpayable",
      "type": "function"
    },
    {
      "constant": false,
      "inputs": [
        {
          "name": "kycValidator",
          "type": "address"
        }
      ],
      "name": "removeKYCValidator",
      "outputs": [],
      "payable": false,
      "stateMutability": "nonpayable",
      "type": "function"
    },
    {
      "constant": false,
      "inputs": [
        {
          "name": "driver",
          "type": "address"
        }
      ],
      "name": "setDriverKYC",
      "outputs": [],
      "payable": false,
      "stateMutability": "nonpayable",
      "type": "function"
    }
  ],
  "bytecode": "0x6080604052670a217b21de09000060045534801561001c57600080fd5b50336000806101000a81548173ffffffffffffffffffffffffffffffffffffffff021916908373ffffffffffffffffffffffffffffffffffffffff1602179055506000809054906101000a900473ffffffffffffffffffffffffffffffffffffffff1673ffffffffffffffffffffffffffffffffffffffff16600073ffffffffffffffffffffffffffffffffffffffff167f8be0079c531659141344cd1fd0a4f28419497f9722a3daafe3b4186f6b6457e060405160405180910390a3610bcd806100e86000396000f3fe608060405234801561001057600080fd5b506004361061009e5760003560e01c80639cd86472116100665780639cd86472146101c75780639e4c133b1461020b578063d0c397ef14610267578063ee90f264146102ab578063f2fde38b146103075761009e565b80634aa60186146100a3578063715018a61461010d57806373b0dddd146101175780638da5cb5b1461015b5780638f32d59b146101a5575b600080fd5b6100e5600480360360208110156100b957600080fd5b81019080803573ffffffffffffffffffffffffffffffffffffffff16906020019092919050505061034b565b6040518084151515158152602001838152602001828152602001935050505060405180910390f35b610115610382565b005b6101596004803603602081101561012d57600080fd5b81019080803573ffffffffffffffffffffffffffffffffffffffff1690602001909291905050506104bb565b005b610163610590565b604051808273ffffffffffffffffffffffffffffffffffffffff1673ffffffffffffffffffffffffffffffffffffffff16815260200191505060405180910390f35b6101ad6105b9565b604051808215151515815260200191505060405180910390f35b610209600480360360208110156101dd57600080fd5b81019080803573ffffffffffffffffffffffffffffffffffffffff169060200190929190505050610610565b005b61024d6004803603602081101561022157600080fd5b81019080803573ffffffffffffffffffffffffffffffffffffffff16906020019092919050505061089d565b604051808215151515815260200191505060405180910390f35b6102a96004803603602081101561027d57600080fd5b81019080803573ffffffffffffffffffffffffffffffffffffffff1690602001909291905050506108bd565b005b6102ed600480360360208110156102c157600080fd5b81019080803573ffffffffffffffffffffffffffffffffffffffff169060200190929190505050610991565b604051808215151515815260200191505060405180910390f35b6103496004803603602081101561031d57600080fd5b81019080803573ffffffffffffffffffffffffffffffffffffffff1690602001909291905050506109b1565b005b60036020528060005260406000206000915090508060000160009054906101000a900460ff16908060010154908060020154905083565b61038a6105b9565b6103fc576040517f08c379a00000000000000000000000000000000000000000000000000000000081526004018080602001828103825260208152602001807f4f776e61626c653a2063616c6c6572206973206e6f7420746865206f776e657281525060200191505060405180910390fd5b600073ffffffffffffffffffffffffffffffffffffffff166000809054906101000a900473ffffffffffffffffffffffffffffffffffffffff1673ffffffffffffffffffffffffffffffffffffffff167f8be0079c531659141344cd1fd0a4f28419497f9722a3daafe3b4186f6b6457e060405160405180910390a360008060006101000a81548173ffffffffffffffffffffffffffffffffffffffff021916908373ffffffffffffffffffffffffffffffffffffffff160217905550565b6104c36105b9565b610535576040517f08c379a00000000000000000000000000000000000000000000000000000000081526004018080602001828103825260208152602001807f4f776e61626c653a2063616c6c6572206973206e6f7420746865206f776e657281525060200191505060405180910390fd5b6000600160008373ffffffffffffffffffffffffffffffffffffffff1673ffffffffffffffffffffffffffffffffffffffff16815260200190815260200160002060006101000a81548160ff02191690831515021790555050565b60008060009054906101000a900473ffffffffffffffffffffffffffffffffffffffff16905090565b60008060009054906101000a900473ffffffffffffffffffffffffffffffffffffffff1673ffffffffffffffffffffffffffffffffffffffff163373ffffffffffffffffffffffffffffffffffffffff1614905090565b60011515600160003373ffffffffffffffffffffffffffffffffffffffff1673ffffffffffffffffffffffffffffffffffffffff16815260200190815260200160002060009054906101000a900460ff161515146106d6576040517f08c379a000000000000000000000000000000000000000000000000000000000815260040180806020018281038252601f8152602001807f4e6f7420616e20617574686f72697a6564204b59432076616c696461746f720081525060200191505060405180910390fd5b8060001515600360008373ffffffffffffffffffffffffffffffffffffffff1673ffffffffffffffffffffffffffffffffffffffff16815260200190815260200160002060000160009054906101000a900460ff161515146107a0576040517f08c379a00000000000000000000000000000000000000000000000000000000081526004018080602001828103825260158152602001807f44726976657220697320616c7265616479204b5943000000000000000000000081525060200191505060405180910390fd5b6040518060600160405280600115158152602001600081526020016005815250600360008473ffffffffffffffffffffffffffffffffffffffff1673ffffffffffffffffffffffffffffffffffffffff16815260200190815260200160002060008201518160000160006101000a81548160ff02191690831515021790555060208201518160010155604082015181600201559050507fe750fb098f69e1583a815a9502d3186dffb4a0715880f94ca0fa0bc6d1d20dc882604051808273ffffffffffffffffffffffffffffffffffffffff1673ffffffffffffffffffffffffffffffffffffffff16815260200191505060405180910390a15050565b60026020528060005260406000206000915054906101000a900460ff1681565b6108c56105b9565b610937576040517f08c379a00000000000000000000000000000000000000000000000000000000081526004018080602001828103825260208152602001807f4f776e61626c653a2063616c6c6572206973206e6f7420746865206f776e657281525060200191505060405180910390fd5b60018060008373ffffffffffffffffffffffffffffffffffffffff1673ffffffffffffffffffffffffffffffffffffffff16815260200190815260200160002060006101000a81548160ff02191690831515021790555050565b60016020528060005260406000206000915054906101000a900460ff1681565b6109b96105b9565b610a2b576040517f08c379a00000000000000000000000000000000000000000000000000000000081526004018080602001828103825260208152602001807f4f776e61626c653a2063616c6c6572206973206e6f7420746865206f776e657281525060200191505060405180910390fd5b610a3481610a37565b50565b600073ffffffffffffffffffffffffffffffffffffffff168173ffffffffffffffffffffffffffffffffffffffff161415610abd576040517f08c379a0000000000000000000000000000000000000000000000000000000008152600401808060200182810382526026815260200180610b7c6026913960400191505060405180910390fd5b8073ffffffffffffffffffffffffffffffffffffffff166000809054906101000a900473ffffffffffffffffffffffffffffffffffffffff1673ffffffffffffffffffffffffffffffffffffffff167f8be0079c531659141344cd1fd0a4f28419497f9722a3daafe3b4186f6b6457e060405160405180910390a3806000806101000a81548173ffffffffffffffffffffffffffffffffffffffff021916908373ffffffffffffffffffffffffffffffffffffffff1602179055505056fe4f776e61626c653a206e6577206f776e657220697320746865207a65726f2061646472657373a165627a7a723058208ac3bb1f6ec1483ebdafe76b058a5e375195cfe5d4c247f4c8664dc49c4949490029",
  "source": "pragma solidity >=0.4.21 <0.6.0;\n\n//import \"../node_modules/zeppelin-solidity/contracts/lifecycle/Pausable.sol\";\nimport \"../node_modules/openzeppelin-solidity/contracts/ownership/Ownable.sol\";\n//import \"../node_modules/zeppelin-solidity/contracts/ECRecovery.sol\";\n\n\ncontract ParcelsNetwork is Ownable{\n\n    uint constant DEFAULT_RATING = 5;\n    struct  Driver {\n        bool isKYC;\n        uint stakedAmount;\n        uint rating;\n    }\n\n    event KYCRegistered(address driverAddress);\n    event KYCRevoked(address driverAddress);\n\n    event DriverStaked(address driverAddress, uint stakedAmount);\n\n    event ParcelRegistered(uint parcelId, address driverAddress);\n\n    event ParcelReceived(uint parcelId, address driverAddress, uint payedAmount);\n\n    // Debug events\n    event debugBytes32(bytes32 _msg);\n    event debugBytes(bytes _msg);\n    event debugString(string _msg);\n    event debugAddress(address _address);\n\n    // mapping with the addresses authorized to validate a KYC\n    mapping (address => bool) public authorizedKYCValidatorsAddresses;\n\n    // mapping with the addresses authorized to distribute parcels\n    mapping (address => bool) public authorizedCarrierAddresses;\n\n    // mapping of all drivers by address\n    mapping (address => Driver) public drivers;\n\n\n    /*\n    ETH price the driver needs to stake in order to be able to start being a distributer agent.\n    Currently we consider a fixed price for sake of simplicity, but this needs to be better managed\n    in the future and have it related to the amount/value of parcels being able to distribute.\n    One can also envision a staking system linked to rating of the driver and require less amount staked \n    if an high rating is observed. This will be evaluated after the hackathon and discussed with the\n    carrier partner.\n    For the moment we consider the value of ~200 CHF. For a question of simplicity, we are staking ETH, but\n    this needs to be changed to a stable coin like DAI in order to remove the volatility of the market from\n    the equation. This also needs to be evaluated depending on the network the system will be deployed. \n    Probably, a side chain like xDAI is the best option due to the extreme low fees and fastness.\n    */\n    uint amountToStake = 730000000000000000;  // ~200CHF in ETH (wei)\n\n    constructor() public {\n    }\n\n\n\n    // KYC related functions & modifiers\n\n    modifier isAuthorizedKYCValidator() {\n        require(authorizedKYCValidatorsAddresses[msg.sender] == true, \"Not an authorized KYC validator\");\n        _;\n    }\n    \n    modifier isKYCDriver(address driver) {\n        require(drivers[driver].isKYC == true, \"Driver is not KYC\");\n        _;\n    }\n\n    modifier notKYCDriver(address driver) {\n        require(drivers[driver].isKYC == false, \"Driver is already KYC\");\n        _;\n    }\n\n    // add a kyc validator to the contract\n    function addKYCValidator(address kycValidator) public onlyOwner {\n        authorizedKYCValidatorsAddresses[kycValidator] = true;\n    }\n\n    // remove a kyc validator from the contract\n    function removeKYCValidator(address kycValidator) public onlyOwner {\n        authorizedKYCValidatorsAddresses[kycValidator] = false;\n    }\n\n    /*\n    Set a driver as KYC. This is a off-chain process that only some validators can perform.\n    Once the driver is KYC, he can then stake in order to start distributing parcels\n    */\n    function setDriverKYC(address driver) public isAuthorizedKYCValidator notKYCDriver(driver) {\n        drivers[driver] = Driver(true, 0, DEFAULT_RATING);\n        emit KYCRegistered(driver);\n    }\n\n\n\n\n\n\n\n    // function allow the staking for a participant\n    /*function stake(address _userUportAddress, uint _expiryDate, bytes _signature) public payable whenNotPaused {\n        bytes32 hashMessage = keccak256(abi.encodePacked(_userUportAddress, msg.value, _expiryDate));\n        address signer = hashMessage.toEthSignedMessageHash().recover(_signature);\n\n        require(signer == grantSigner, \"Signature is not valid\");\n        require(block.timestamp < _expiryDate, \"Grant is expired\");\n        require(userStakedAddress[_userUportAddress] == 0, \"User has already staked!\");\n\n        userStakedAddress[_userUportAddress] = msg.sender;\n        stakedAmount[_userUportAddress] = msg.value;\n\n        emit UserStake(_userUportAddress, msg.sender, msg.value);\n    }\n\n    // function allow the staking for a participant\n    function recoupStake(address _userUportAddress, uint _expiryDate, bytes _signature) public whenNotPaused {\n        bytes32 hashMessage = keccak256(abi.encodePacked(_userUportAddress, _expiryDate));\n        address signer = hashMessage.toEthSignedMessageHash().recover(_signature);\n\n        require(signer == grantSigner, \"Signature is not valid\");\n        require(block.timestamp < _expiryDate, \"Grant is expired\");\n        require(userStakedAddress[_userUportAddress] != 0, \"User has not staked!\");\n\n        address stakedBy = userStakedAddress[_userUportAddress];\n        uint amount = stakedAmount[_userUportAddress];\n        userStakedAddress[_userUportAddress] = address(0x0);\n        stakedAmount[_userUportAddress] = 0;\n\n        stakedBy.transfer(amount);\n\n        emit UserRecoupStake(_userUportAddress, stakedBy, amount);\n    }\n\n    // Owner functions\n\n    function setGrantSigner(address _signer) public onlyOwner {\n        require(_signer != address(0x0), \"address is null\");\n        grantSigner = _signer;\n    }\n\n    function sweepStakes() public onlyOwner {\n        require(block.timestamp > finishDate, \"EthDenver is not over yet!\");\n        owner.transfer(address(this).balance);\n    }\n*/\n}",
  "sourcePath": "/home/ec2-user/environment/osb-smartcontracts/contracts/ParcelsNetwork.sol",
  "compiler": {
    "name": "solc",
    "version": "0.5.8+commit.23d335f2.Emscripten.clang"
  },
  "schemaVersion": "3.0.11",
  "updatedAt": "2019-06-22T14:20:29.540Z",
  "devdoc": {
    "methods": {
      "isOwner()": {
        "details": "Returns true if the caller is the current owner."
      },
      "owner()": {
        "details": "Returns the address of the current owner."
      },
      "renounceOwnership()": {
        "details": "Leaves the contract without owner. It will not be possible to call `onlyOwner` functions anymore. Can only be called by the current owner.     * > Note: Renouncing ownership will leave the contract without an owner, thereby removing any functionality that is only available to the owner."
      },
      "transferOwnership(address)": {
        "details": "Transfers ownership of the contract to a new account (`newOwner`). Can only be called by the current owner."
      }
    }
  },
  "userdoc": {
    "methods": {}
  }
}