{
  "contractName": "ParcelsNetwork",
  "abi": [
    {
      "constant": true,
      "inputs": [],
      "name": "amountToStake",
      "outputs": [
        {
          "name": "",
          "type": "uint256"
        }
      ],
      "payable": false,
      "stateMutability": "view",
      "type": "function"
    },
    {
      "constant": false,
      "inputs": [],
      "name": "unpause",
      "outputs": [],
      "payable": false,
      "stateMutability": "nonpayable",
      "type": "function"
    },
    {
      "constant": true,
      "inputs": [
        {
          "name": "account",
          "type": "address"
        }
      ],
      "name": "isPauser",
      "outputs": [
        {
          "name": "",
          "type": "bool"
        }
      ],
      "payable": false,
      "stateMutability": "view",
      "type": "function"
    },
    {
      "constant": true,
      "inputs": [
        {
          "name": "",
          "type": "address"
        }
      ],
      "name": "drivers",
      "outputs": [
        {
          "name": "isKYC",
          "type": "bool"
        },
        {
          "name": "stakedAmount",
          "type": "uint256"
        },
        {
          "name": "rating",
          "type": "uint256"
        }
      ],
      "payable": false,
      "stateMutability": "view",
      "type": "function"
    },
    {
      "constant": true,
      "inputs": [],
      "name": "paused",
      "outputs": [
        {
          "name": "",
          "type": "bool"
        }
      ],
      "payable": false,
      "stateMutability": "view",
      "type": "function"
    },
    {
      "constant": false,
      "inputs": [],
      "name": "renouncePauser",
      "outputs": [],
      "payable": false,
      "stateMutability": "nonpayable",
      "type": "function"
    },
    {
      "constant": false,
      "inputs": [],
      "name": "renounceOwnership",
      "outputs": [],
      "payable": false,
      "stateMutability": "nonpayable",
      "type": "function"
    },
    {
      "constant": true,
      "inputs": [
        {
          "name": "",
          "type": "string"
        }
      ],
      "name": "parcels",
      "outputs": [
        {
          "name": "parcelId",
          "type": "string"
        },
        {
          "name": "isDelivered",
          "type": "bool"
        },
        {
          "name": "driverAddress",
          "type": "address"
        },
        {
          "name": "deliverStarted",
          "type": "uint256"
        },
        {
          "name": "deliverFinished",
          "type": "uint256"
        },
        {
          "name": "value",
          "type": "uint256"
        }
      ],
      "payable": false,
      "stateMutability": "view",
      "type": "function"
    },
    {
      "constant": false,
      "inputs": [
        {
          "name": "account",
          "type": "address"
        }
      ],
      "name": "addPauser",
      "outputs": [],
      "payable": false,
      "stateMutability": "nonpayable",
      "type": "function"
    },
    {
      "constant": false,
      "inputs": [],
      "name": "pause",
      "outputs": [],
      "payable": false,
      "stateMutability": "nonpayable",
      "type": "function"
    },
    {
      "constant": true,
      "inputs": [],
      "name": "owner",
      "outputs": [
        {
          "name": "",
          "type": "address"
        }
      ],
      "payable": false,
      "stateMutability": "view",
      "type": "function"
    },
    {
      "constant": true,
      "inputs": [],
      "name": "isOwner",
      "outputs": [
        {
          "name": "",
          "type": "bool"
        }
      ],
      "payable": false,
      "stateMutability": "view",
      "type": "function"
    },
    {
      "constant": true,
      "inputs": [
        {
          "name": "",
          "type": "address"
        }
      ],
      "name": "authorizedCarrierAddresses",
      "outputs": [
        {
          "name": "",
          "type": "bool"
        }
      ],
      "payable": false,
      "stateMutability": "view",
      "type": "function"
    },
    {
      "constant": true,
      "inputs": [
        {
          "name": "",
          "type": "address"
        }
      ],
      "name": "authorizedKYCValidatorsAddresses",
      "outputs": [
        {
          "name": "",
          "type": "bool"
        }
      ],
      "payable": false,
      "stateMutability": "view",
      "type": "function"
    },
    {
      "constant": false,
      "inputs": [
        {
          "name": "newOwner",
          "type": "address"
        }
      ],
      "name": "transferOwnership",
      "outputs": [],
      "payable": false,
      "stateMutability": "nonpayable",
      "type": "function"
    },
    {
      "inputs": [],
      "payable": false,
      "stateMutability": "nonpayable",
      "type": "constructor"
    },
    {
      "anonymous": false,
      "inputs": [
        {
          "indexed": false,
          "name": "driverAddress",
          "type": "address"
        }
      ],
      "name": "KYCRegistered",
      "type": "event"
    },
    {
      "anonymous": false,
      "inputs": [
        {
          "indexed": false,
          "name": "driverAddress",
          "type": "address"
        }
      ],
      "name": "KYCRevoked",
      "type": "event"
    },
    {
      "anonymous": false,
      "inputs": [
        {
          "indexed": false,
          "name": "driverAddress",
          "type": "address"
        },
        {
          "indexed": false,
          "name": "stakedAmount",
          "type": "uint256"
        }
      ],
      "name": "DriverStaked",
      "type": "event"
    },
    {
      "anonymous": false,
      "inputs": [
        {
          "indexed": false,
          "name": "parcelId",
          "type": "string"
        },
        {
          "indexed": false,
          "name": "driverAddress",
          "type": "address"
        },
        {
          "indexed": false,
          "name": "value",
          "type": "uint256"
        }
      ],
      "name": "ParcelRegistered",
      "type": "event"
    },
    {
      "anonymous": false,
      "inputs": [
        {
          "indexed": false,
          "name": "parcelId",
          "type": "string"
        },
        {
          "indexed": false,
          "name": "driverAddress",
          "type": "address"
        },
        {
          "indexed": false,
          "name": "payedAmount",
          "type": "uint256"
        }
      ],
      "name": "ParcelReceived",
      "type": "event"
    },
    {
      "anonymous": false,
      "inputs": [
        {
          "indexed": false,
          "name": "_msg",
          "type": "bytes32"
        }
      ],
      "name": "debugBytes32",
      "type": "event"
    },
    {
      "anonymous": false,
      "inputs": [
        {
          "indexed": false,
          "name": "_msg",
          "type": "bytes"
        }
      ],
      "name": "debugBytes",
      "type": "event"
    },
    {
      "anonymous": false,
      "inputs": [
        {
          "indexed": false,
          "name": "_msg",
          "type": "string"
        }
      ],
      "name": "debugString",
      "type": "event"
    },
    {
      "anonymous": false,
      "inputs": [
        {
          "indexed": false,
          "name": "_address",
          "type": "address"
        }
      ],
      "name": "debugAddress",
      "type": "event"
    },
    {
      "anonymous": false,
      "inputs": [
        {
          "indexed": false,
          "name": "account",
          "type": "address"
        }
      ],
      "name": "Paused",
      "type": "event"
    },
    {
      "anonymous": false,
      "inputs": [
        {
          "indexed": false,
          "name": "account",
          "type": "address"
        }
      ],
      "name": "Unpaused",
      "type": "event"
    },
    {
      "anonymous": false,
      "inputs": [
        {
          "indexed": true,
          "name": "account",
          "type": "address"
        }
      ],
      "name": "PauserAdded",
      "type": "event"
    },
    {
      "anonymous": false,
      "inputs": [
        {
          "indexed": true,
          "name": "account",
          "type": "address"
        }
      ],
      "name": "PauserRemoved",
      "type": "event"
    },
    {
      "anonymous": false,
      "inputs": [
        {
          "indexed": true,
          "name": "previousOwner",
          "type": "address"
        },
        {
          "indexed": true,
          "name": "newOwner",
          "type": "address"
        }
      ],
      "name": "OwnershipTransferred",
      "type": "event"
    },
    {
      "constant": false,
      "inputs": [
        {
          "name": "newValue",
          "type": "uint256"
        }
      ],
      "name": "setAmountToStake",
      "outputs": [],
      "payable": false,
      "stateMutability": "nonpayable",
      "type": "function"
    },
    {
      "constant": false,
      "inputs": [
        {
          "name": "carrier",
          "type": "address"
        }
      ],
      "name": "addAuthorizedCarrier",
      "outputs": [],
      "payable": false,
      "stateMutability": "nonpayable",
      "type": "function"
    },
    {
      "constant": false,
      "inputs": [
        {
          "name": "carrier",
          "type": "address"
        }
      ],
      "name": "removeAuthorizedCarrier",
      "outputs": [],
      "payable": false,
      "stateMutability": "nonpayable",
      "type": "function"
    },
    {
      "constant": false,
      "inputs": [
        {
          "name": "kycValidator",
          "type": "address"
        }
      ],
      "name": "addKYCValidator",
      "outputs": [],
      "payable": false,
      "stateMutability": "nonpayable",
      "type": "function"
    },
    {
      "constant": false,
      "inputs": [
        {
          "name": "kycValidator",
          "type": "address"
        }
      ],
      "name": "removeKYCValidator",
      "outputs": [],
      "payable": false,
      "stateMutability": "nonpayable",
      "type": "function"
    },
    {
      "constant": false,
      "inputs": [
        {
          "name": "driver",
          "type": "address"
        }
      ],
      "name": "setDriverKYC",
      "outputs": [],
      "payable": false,
      "stateMutability": "nonpayable",
      "type": "function"
    },
    {
      "constant": true,
      "inputs": [
        {
          "name": "driver",
          "type": "address"
        }
      ],
      "name": "isDriverKYC",
      "outputs": [
        {
          "name": "",
          "type": "bool"
        }
      ],
      "payable": false,
      "stateMutability": "view",
      "type": "function"
    },
    {
      "constant": false,
      "inputs": [
        {
          "name": "parcelId",
          "type": "string"
        },
        {
          "name": "driverAddress",
          "type": "address"
        }
      ],
      "name": "registerParcel",
      "outputs": [],
      "payable": true,
      "stateMutability": "payable",
      "type": "function"
    },
    {
      "constant": false,
      "inputs": [
        {
          "name": "parcelId",
          "type": "string"
        }
      ],
      "name": "receiveParcel",
      "outputs": [],
      "payable": false,
      "stateMutability": "nonpayable",
      "type": "function"
    }
  ],
  "bytecode": "0x6080604052666a94d74f4300006007553480156200001c57600080fd5b50336000806101000a81548173ffffffffffffffffffffffffffffffffffffffff021916908373ffffffffffffffffffffffffffffffffffffffff1602179055506000809054906101000a900473ffffffffffffffffffffffffffffffffffffffff1673ffffffffffffffffffffffffffffffffffffffff16600073ffffffffffffffffffffffffffffffffffffffff167f8be0079c531659141344cd1fd0a4f28419497f9722a3daafe3b4186f6b6457e060405160405180910390a3620000ea336200010b60201b60201c565b6000600260006101000a81548160ff02191690831515021790555062000330565b620001268160016200016c60201b620025e61790919060201c565b8073ffffffffffffffffffffffffffffffffffffffff167f6719d08c1888103bea251a4ed56406bd0c3e69723c8a1686e017e7bbe159b6f860405160405180910390a250565b6200017e82826200025060201b60201c565b15620001f2576040517f08c379a000000000000000000000000000000000000000000000000000000000815260040180806020018281038252601f8152602001807f526f6c65733a206163636f756e7420616c72656164792068617320726f6c650081525060200191505060405180910390fd5b60018260000160008373ffffffffffffffffffffffffffffffffffffffff1673ffffffffffffffffffffffffffffffffffffffff16815260200190815260200160002060006101000a81548160ff0219169083151502179055505050565b60008073ffffffffffffffffffffffffffffffffffffffff168273ffffffffffffffffffffffffffffffffffffffff161415620002d9576040517f08c379a000000000000000000000000000000000000000000000000000000000815260040180806020018281038252602281526020018062002b936022913960400191505060405180910390fd5b8260000160008373ffffffffffffffffffffffffffffffffffffffff1673ffffffffffffffffffffffffffffffffffffffff16815260200190815260200160002060009054906101000a900460ff16905092915050565b61285380620003406000396000f3fe60806040526004361061014b5760003560e01c80637b14d0c9116100b65780638f32d59b1161006f5780638f32d59b1461085c5780639cd864721461088b5780639e4c133b146108dc578063d0c397ef14610945578063ee90f26414610996578063f2fde38b146109ff5761014b565b80637b14d0c9146104f35780637bcd682a146105ce57806382dc1ec4146107625780638456cb59146107b35780638964d03d146107ca5780638da5cb5b146108055761014b565b80635c975abb116101085780635c975abb14610314578063697ab5de146103435780636ef8d66d1461040b578063715018a61461042257806373b0dddd14610439578063795bbd301461048a5761014b565b806313ef0a77146101505780633c58ba86146101a15780633f4ba83a146101cc57806346fbf68e146101e35780634aa601861461024c5780634fce982b146102c3575b600080fd5b34801561015c57600080fd5b5061019f6004803603602081101561017357600080fd5b81019080803573ffffffffffffffffffffffffffffffffffffffff169060200190929190505050610a50565b005b3480156101ad57600080fd5b506101b6610b25565b6040518082815260200191505060405180910390f35b3480156101d857600080fd5b506101e1610b2b565b005b3480156101ef57600080fd5b506102326004803603602081101561020657600080fd5b81019080803573ffffffffffffffffffffffffffffffffffffffff169060200190929190505050610c8b565b604051808215151515815260200191505060405180910390f35b34801561025857600080fd5b5061029b6004803603602081101561026f57600080fd5b81019080803573ffffffffffffffffffffffffffffffffffffffff169060200190929190505050610ca8565b6040518084151515158152602001838152602001828152602001935050505060405180910390f35b3480156102cf57600080fd5b50610312600480360360208110156102e657600080fd5b81019080803573ffffffffffffffffffffffffffffffffffffffff169060200190929190505050610cdf565b005b34801561032057600080fd5b50610329610db4565b604051808215151515815260200191505060405180910390f35b34801561034f57600080fd5b506104096004803603602081101561036657600080fd5b810190808035906020019064010000000081111561038357600080fd5b82018360208201111561039557600080fd5b803590602001918460018302840111640100000000831117156103b757600080fd5b91908080601f016020809104026020016040519081016040528093929190818152602001838380828437600081840152601f19601f820116905080830192505050505050509192919290505050610dcb565b005b34801561041757600080fd5b5061042061127a565b005b34801561042e57600080fd5b50610437611285565b005b34801561044557600080fd5b506104886004803603602081101561045c57600080fd5b81019080803573ffffffffffffffffffffffffffffffffffffffff1690602001909291905050506113be565b005b34801561049657600080fd5b506104d9600480360360208110156104ad57600080fd5b81019080803573ffffffffffffffffffffffffffffffffffffffff169060200190929190505050611493565b604051808215151515815260200191505060405180910390f35b6105cc6004803603604081101561050957600080fd5b810190808035906020019064010000000081111561052657600080fd5b82018360208201111561053857600080fd5b8035906020019184600183028401116401000000008311171561055a57600080fd5b91908080601f016020809104026020016040519081016040528093929190818152602001838380828437600081840152601f19601f820116905080830192505050505050509192919290803573ffffffffffffffffffffffffffffffffffffffff1690602001909291905050506114ec565b005b3480156105da57600080fd5b50610694600480360360208110156105f157600080fd5b810190808035906020019064010000000081111561060e57600080fd5b82018360208201111561062057600080fd5b8035906020019184600183028401116401000000008311171561064257600080fd5b91908080601f016020809104026020016040519081016040528093929190818152602001838380828437600081840152601f19601f8201169050808301925050505050505091929192905050506119c2565b6040518080602001871515151581526020018673ffffffffffffffffffffffffffffffffffffffff1673ffffffffffffffffffffffffffffffffffffffff168152602001858152602001848152602001838152602001828103825288818151815260200191508051906020019080838360005b83811015610722578082015181840152602081019050610707565b50505050905090810190601f16801561074f5780820380516001836020036101000a031916815260200191505b5097505050505050505060405180910390f35b34801561076e57600080fd5b506107b16004803603602081101561078557600080fd5b81019080803573ffffffffffffffffffffffffffffffffffffffff169060200190929190505050611ad9565b005b3480156107bf57600080fd5b506107c8611b43565b005b3480156107d657600080fd5b50610803600480360360208110156107ed57600080fd5b8101908080359060200190929190505050611ca4565b005b34801561081157600080fd5b5061081a611d28565b604051808273ffffffffffffffffffffffffffffffffffffffff1673ffffffffffffffffffffffffffffffffffffffff16815260200191505060405180910390f35b34801561086857600080fd5b50610871611d51565b604051808215151515815260200191505060405180910390f35b34801561089757600080fd5b506108da600480360360208110156108ae57600080fd5b81019080803573ffffffffffffffffffffffffffffffffffffffff169060200190929190505050611da8565b005b3480156108e857600080fd5b5061092b600480360360208110156108ff57600080fd5b81019080803573ffffffffffffffffffffffffffffffffffffffff1690602001909291905050506120b8565b604051808215151515815260200191505060405180910390f35b34801561095157600080fd5b506109946004803603602081101561096857600080fd5b81019080803573ffffffffffffffffffffffffffffffffffffffff1690602001909291905050506120d8565b005b3480156109a257600080fd5b506109e5600480360360208110156109b957600080fd5b81019080803573ffffffffffffffffffffffffffffffffffffffff1690602001909291905050506121ad565b604051808215151515815260200191505060405180910390f35b348015610a0b57600080fd5b50610a4e60048036036020811015610a2257600080fd5b81019080803573ffffffffffffffffffffffffffffffffffffffff1690602001909291905050506121cd565b005b610a58611d51565b610aca576040517f08c379a00000000000000000000000000000000000000000000000000000000081526004018080602001828103825260208152602001807f4f776e61626c653a2063616c6c6572206973206e6f7420746865206f776e657281525060200191505060405180910390fd5b6001600460008373ffffffffffffffffffffffffffffffffffffffff1673ffffffffffffffffffffffffffffffffffffffff16815260200190815260200160002060006101000a81548160ff02191690831515021790555050565b60075481565b610b3433610c8b565b610b89576040517f08c379a000000000000000000000000000000000000000000000000000000000815260040180806020018281038252603081526020018061278f6030913960400191505060405180910390fd5b600260009054906101000a900460ff16610c0b576040517f08c379a00000000000000000000000000000000000000000000000000000000081526004018080602001828103825260148152602001807f5061757361626c653a206e6f742070617573656400000000000000000000000081525060200191505060405180910390fd5b6000600260006101000a81548160ff0219169083151502179055507f5db9ee0a495bf2e6ff9c91a7834c1ba4fdd244a5e8aa4e537bd38aeae4b073aa33604051808273ffffffffffffffffffffffffffffffffffffffff1673ffffffffffffffffffffffffffffffffffffffff16815260200191505060405180910390a1565b6000610ca182600161225390919063ffffffff16565b9050919050565b60056020528060005260406000206000915090508060000160009054906101000a900460ff16908060010154908060020154905083565b610ce7611d51565b610d59576040517f08c379a00000000000000000000000000000000000000000000000000000000081526004018080602001828103825260208152602001807f4f776e61626c653a2063616c6c6572206973206e6f7420746865206f776e657281525060200191505060405180910390fd5b6000600460008373ffffffffffffffffffffffffffffffffffffffff1673ffffffffffffffffffffffffffffffffffffffff16815260200190815260200160002060006101000a81548160ff02191690831515021790555050565b6000600260009054906101000a900460ff16905090565b600260009054906101000a900460ff1615610e4e576040517f08c379a00000000000000000000000000000000000000000000000000000000081526004018080602001828103825260108152602001807f5061757361626c653a207061757365640000000000000000000000000000000081525060200191505060405180910390fd5b3373ffffffffffffffffffffffffffffffffffffffff166006826040518082805190602001908083835b60208310610e9b5780518252602082019150602081019050602083039250610e78565b6001836020036101000a038019825116818451168082178552505050505050905001915050908152602001604051809103902060010160019054906101000a900473ffffffffffffffffffffffffffffffffffffffff1673ffffffffffffffffffffffffffffffffffffffff1614610f5e576040517f08c379a00000000000000000000000000000000000000000000000000000000081526004018080602001828103825260288152602001806127676028913960400191505060405180910390fd5b60016006826040518082805190602001908083835b60208310610f965780518252602082019150602081019050602083039250610f73565b6001836020036101000a038019825116818451168082178552505050505050905001915050908152602001604051809103902060010160006101000a81548160ff021916908315150217905550426006826040518082805190602001908083835b6020831061101a5780518252602082019150602081019050602083039250610ff7565b6001836020036101000a03801982511681845116808217855250505050505090500191505090815260200160405180910390206003018190555060006006826040518082805190602001908083835b6020831061108c5780518252602082019150602081019050602083039250611069565b6001836020036101000a038019825116818451168082178552505050505050905001915050908152602001604051809103902060040154905060006006836040518082805190602001908083835b602083106110fd57805182526020820191506020810190506020830392506110da565b6001836020036101000a038019825116818451168082178552505050505050905001915050908152602001604051809103902060010160019054906101000a900473ffffffffffffffffffffffffffffffffffffffff1690507f7c151248fb6044e123752625e15b3a89982b7ae17a4427054203e8a4b5a9ccb583828460405180806020018473ffffffffffffffffffffffffffffffffffffffff1673ffffffffffffffffffffffffffffffffffffffff168152602001838152602001828103825285818151815260200191508051906020019080838360005b838110156111f25780820151818401526020810190506111d7565b50505050905090810190601f16801561121f5780820380516001836020036101000a031916815260200191505b5094505050505060405180910390a18073ffffffffffffffffffffffffffffffffffffffff166108fc839081150290604051600060405180830381858888f19350505050158015611274573d6000803e3d6000fd5b50505050565b61128333612331565b565b61128d611d51565b6112ff576040517f08c379a00000000000000000000000000000000000000000000000000000000081526004018080602001828103825260208152602001807f4f776e61626c653a2063616c6c6572206973206e6f7420746865206f776e657281525060200191505060405180910390fd5b600073ffffffffffffffffffffffffffffffffffffffff166000809054906101000a900473ffffffffffffffffffffffffffffffffffffffff1673ffffffffffffffffffffffffffffffffffffffff167f8be0079c531659141344cd1fd0a4f28419497f9722a3daafe3b4186f6b6457e060405160405180910390a360008060006101000a81548173ffffffffffffffffffffffffffffffffffffffff021916908373ffffffffffffffffffffffffffffffffffffffff160217905550565b6113c6611d51565b611438576040517f08c379a00000000000000000000000000000000000000000000000000000000081526004018080602001828103825260208152602001807f4f776e61626c653a2063616c6c6572206973206e6f7420746865206f776e657281525060200191505060405180910390fd5b6000600360008373ffffffffffffffffffffffffffffffffffffffff1673ffffffffffffffffffffffffffffffffffffffff16815260200190815260200160002060006101000a81548160ff02191690831515021790555050565b6000600560008373ffffffffffffffffffffffffffffffffffffffff1673ffffffffffffffffffffffffffffffffffffffff16815260200190815260200160002060000160009054906101000a900460ff169050919050565b60011515600460003373ffffffffffffffffffffffffffffffffffffffff1673ffffffffffffffffffffffffffffffffffffffff16815260200190815260200160002060009054906101000a900460ff161515146115b2576040517f08c379a00000000000000000000000000000000000000000000000000000000081526004018080602001828103825260198152602001807f4e6f7420616e20617574686f72697a656420436172726965720000000000000081525060200191505060405180910390fd5b8060011515600560008373ffffffffffffffffffffffffffffffffffffffff1673ffffffffffffffffffffffffffffffffffffffff16815260200190815260200160002060000160009054906101000a900460ff1615151461167c576040517f08c379a00000000000000000000000000000000000000000000000000000000081526004018080602001828103825260118152602001807f447269766572206973206e6f74204b594300000000000000000000000000000081525060200191505060405180910390fd5b816007548173ffffffffffffffffffffffffffffffffffffffff1631101561170c576040517f08c379a00000000000000000000000000000000000000000000000000000000081526004018080602001828103825260198152602001807f4e6f7420656e6f7567682062616c616e6365207374616b65640000000000000081525060200191505060405180910390fd5b600260009054906101000a900460ff161561178f576040517f08c379a00000000000000000000000000000000000000000000000000000000081526004018080602001828103825260108152602001807f5061757361626c653a207061757365640000000000000000000000000000000081525060200191505060405180910390fd5b6040518060c001604052808581526020016000151581526020018473ffffffffffffffffffffffffffffffffffffffff16815260200142815260200160008152602001348152506006856040518082805190602001908083835b6020831061180c57805182526020820191506020810190506020830392506117e9565b6001836020036101000a0380198251168184511680821785525050505050509050019150509081526020016040518091039020600082015181600001908051906020019061185b9291906126c1565b5060208201518160010160006101000a81548160ff02191690831515021790555060408201518160010160016101000a81548173ffffffffffffffffffffffffffffffffffffffff021916908373ffffffffffffffffffffffffffffffffffffffff160217905550606082015181600201556080820151816003015560a082015181600401559050507f1f1a0b049604cfbfb177636e8a964c3fea61c727b1d1ddbf0a43a32d18fd239e84843460405180806020018473ffffffffffffffffffffffffffffffffffffffff1673ffffffffffffffffffffffffffffffffffffffff168152602001838152602001828103825285818151815260200191508051906020019080838360005b83811015611980578082015181840152602081019050611965565b50505050905090810190601f1680156119ad5780820380516001836020036101000a031916815260200191505b5094505050505060405180910390a150505050565b600681805160208101820180518482526020830160208501208183528095505050505050600091509050806000018054600181600116156101000203166002900480601f016020809104026020016040519081016040528092919081815260200182805460018160011615610100020316600290048015611a845780601f10611a5957610100808354040283529160200191611a84565b820191906000526020600020905b815481529060010190602001808311611a6757829003601f168201915b5050505050908060010160009054906101000a900460ff16908060010160019054906101000a900473ffffffffffffffffffffffffffffffffffffffff16908060020154908060030154908060040154905086565b611ae233610c8b565b611b37576040517f08c379a000000000000000000000000000000000000000000000000000000000815260040180806020018281038252603081526020018061278f6030913960400191505060405180910390fd5b611b408161238b565b50565b611b4c33610c8b565b611ba1576040517f08c379a000000000000000000000000000000000000000000000000000000000815260040180806020018281038252603081526020018061278f6030913960400191505060405180910390fd5b600260009054906101000a900460ff1615611c24576040517f08c379a00000000000000000000000000000000000000000000000000000000081526004018080602001828103825260108152602001807f5061757361626c653a207061757365640000000000000000000000000000000081525060200191505060405180910390fd5b6001600260006101000a81548160ff0219169083151502179055507f62e78cea01bee320cd4e420270b5ea74000d11b0c9f74754ebdbfc544b05a25833604051808273ffffffffffffffffffffffffffffffffffffffff1673ffffffffffffffffffffffffffffffffffffffff16815260200191505060405180910390a1565b611cac611d51565b611d1e576040517f08c379a00000000000000000000000000000000000000000000000000000000081526004018080602001828103825260208152602001807f4f776e61626c653a2063616c6c6572206973206e6f7420746865206f776e657281525060200191505060405180910390fd5b8060078190555050565b60008060009054906101000a900473ffffffffffffffffffffffffffffffffffffffff16905090565b60008060009054906101000a900473ffffffffffffffffffffffffffffffffffffffff1673ffffffffffffffffffffffffffffffffffffffff163373ffffffffffffffffffffffffffffffffffffffff1614905090565b60011515600360003373ffffffffffffffffffffffffffffffffffffffff1673ffffffffffffffffffffffffffffffffffffffff16815260200190815260200160002060009054906101000a900460ff16151514611e6e576040517f08c379a000000000000000000000000000000000000000000000000000000000815260040180806020018281038252601f8152602001807f4e6f7420616e20617574686f72697a6564204b59432076616c696461746f720081525060200191505060405180910390fd5b8060001515600560008373ffffffffffffffffffffffffffffffffffffffff1673ffffffffffffffffffffffffffffffffffffffff16815260200190815260200160002060000160009054906101000a900460ff16151514611f38576040517f08c379a00000000000000000000000000000000000000000000000000000000081526004018080602001828103825260158152602001807f44726976657220697320616c7265616479204b5943000000000000000000000081525060200191505060405180910390fd5b600260009054906101000a900460ff1615611fbb576040517f08c379a00000000000000000000000000000000000000000000000000000000081526004018080602001828103825260108152602001807f5061757361626c653a207061757365640000000000000000000000000000000081525060200191505060405180910390fd5b6040518060600160405280600115158152602001600081526020016005815250600560008473ffffffffffffffffffffffffffffffffffffffff1673ffffffffffffffffffffffffffffffffffffffff16815260200190815260200160002060008201518160000160006101000a81548160ff02191690831515021790555060208201518160010155604082015181600201559050507fe750fb098f69e1583a815a9502d3186dffb4a0715880f94ca0fa0bc6d1d20dc882604051808273ffffffffffffffffffffffffffffffffffffffff1673ffffffffffffffffffffffffffffffffffffffff16815260200191505060405180910390a15050565b60046020528060005260406000206000915054906101000a900460ff1681565b6120e0611d51565b612152576040517f08c379a00000000000000000000000000000000000000000000000000000000081526004018080602001828103825260208152602001807f4f776e61626c653a2063616c6c6572206973206e6f7420746865206f776e657281525060200191505060405180910390fd5b6001600360008373ffffffffffffffffffffffffffffffffffffffff1673ffffffffffffffffffffffffffffffffffffffff16815260200190815260200160002060006101000a81548160ff02191690831515021790555050565b60036020528060005260406000206000915054906101000a900460ff1681565b6121d5611d51565b612247576040517f08c379a00000000000000000000000000000000000000000000000000000000081526004018080602001828103825260208152602001807f4f776e61626c653a2063616c6c6572206973206e6f7420746865206f776e657281525060200191505060405180910390fd5b612250816123e5565b50565b60008073ffffffffffffffffffffffffffffffffffffffff168273ffffffffffffffffffffffffffffffffffffffff1614156122da576040517f08c379a00000000000000000000000000000000000000000000000000000000081526004018080602001828103825260228152602001806128066022913960400191505060405180910390fd5b8260000160008373ffffffffffffffffffffffffffffffffffffffff1673ffffffffffffffffffffffffffffffffffffffff16815260200190815260200160002060009054906101000a900460ff16905092915050565b61234581600161252990919063ffffffff16565b8073ffffffffffffffffffffffffffffffffffffffff167fcd265ebaf09df2871cc7bd4133404a235ba12eff2041bb89d9c714a2621c7c7e60405160405180910390a250565b61239f8160016125e690919063ffffffff16565b8073ffffffffffffffffffffffffffffffffffffffff167f6719d08c1888103bea251a4ed56406bd0c3e69723c8a1686e017e7bbe159b6f860405160405180910390a250565b600073ffffffffffffffffffffffffffffffffffffffff168173ffffffffffffffffffffffffffffffffffffffff16141561246b576040517f08c379a00000000000000000000000000000000000000000000000000000000081526004018080602001828103825260268152602001806127bf6026913960400191505060405180910390fd5b8073ffffffffffffffffffffffffffffffffffffffff166000809054906101000a900473ffffffffffffffffffffffffffffffffffffffff1673ffffffffffffffffffffffffffffffffffffffff167f8be0079c531659141344cd1fd0a4f28419497f9722a3daafe3b4186f6b6457e060405160405180910390a3806000806101000a81548173ffffffffffffffffffffffffffffffffffffffff021916908373ffffffffffffffffffffffffffffffffffffffff16021790555050565b6125338282612253565b612588576040517f08c379a00000000000000000000000000000000000000000000000000000000081526004018080602001828103825260218152602001806127e56021913960400191505060405180910390fd5b60008260000160008373ffffffffffffffffffffffffffffffffffffffff1673ffffffffffffffffffffffffffffffffffffffff16815260200190815260200160002060006101000a81548160ff0219169083151502179055505050565b6125f08282612253565b15612663576040517f08c379a000000000000000000000000000000000000000000000000000000000815260040180806020018281038252601f8152602001807f526f6c65733a206163636f756e7420616c72656164792068617320726f6c650081525060200191505060405180910390fd5b60018260000160008373ffffffffffffffffffffffffffffffffffffffff1673ffffffffffffffffffffffffffffffffffffffff16815260200190815260200160002060006101000a81548160ff0219169083151502179055505050565b828054600181600116156101000203166002900490600052602060002090601f016020900481019282601f1061270257805160ff1916838001178555612730565b82800160010185558215612730579182015b8281111561272f578251825591602001919060010190612714565b5b50905061273d9190612741565b5090565b61276391905b8082111561275f576000816000905550600101612747565b5090565b9056fe43616c6c6572206973206e6f74207468652064726976657220666f7220746869732070617263656c506175736572526f6c653a2063616c6c657220646f6573206e6f742068617665207468652050617573657220726f6c654f776e61626c653a206e6577206f776e657220697320746865207a65726f2061646472657373526f6c65733a206163636f756e7420646f6573206e6f74206861766520726f6c65526f6c65733a206163636f756e7420697320746865207a65726f2061646472657373a165627a7a723058202dddcb3a054b19a8df730326122bbefcbc993d614ae4190b4056c455484bc09b0029526f6c65733a206163636f756e7420697320746865207a65726f2061646472657373",
  "source": "pragma solidity >=0.4.21 <0.6.0;\n\nimport \"../node_modules/openzeppelin-solidity/contracts/lifecycle/Pausable.sol\";\nimport \"../node_modules/openzeppelin-solidity/contracts/ownership/Ownable.sol\";\n\n\ncontract ParcelsNetwork is Ownable, Pausable{\n\n    uint constant DEFAULT_RATING = 5;\n    struct  Driver {\n        bool isKYC;\n        uint stakedAmount;\n        uint rating;\n    }\n\n    struct Parcel {\n        string parcelId;\n        bool isDelivered;\n        address payable driverAddress;\n        uint deliverStarted;\n        uint deliverFinished;\n        uint value;\n    }\n\n    event KYCRegistered(address driverAddress);\n    event KYCRevoked(address driverAddress);\n\n    event DriverStaked(address driverAddress, uint stakedAmount);\n\n    event ParcelRegistered(string parcelId, address driverAddress, uint value);\n\n    event ParcelReceived(string parcelId, address driverAddress, uint payedAmount);\n\n    // Debug events\n    event debugBytes32(bytes32 _msg);\n    event debugBytes(bytes _msg);\n    event debugString(string _msg);\n    event debugAddress(address _address);\n\n    // mapping with the addresses authorized to validate a KYC\n    mapping (address => bool) public authorizedKYCValidatorsAddresses;\n\n    // mapping with the addresses authorized to distribute parcels\n    mapping (address => bool) public authorizedCarrierAddresses;\n\n    // mapping of all drivers by address\n    mapping (address => Driver) public drivers;\n\n    // mapping of all tracked parcels, identified by ParcelId\n    mapping (string => Parcel) public parcels;\n\n    /*\n    ETH price the driver needs to stake in order to be able to start being a distributer agent.\n    Currently we consider a fixed price for sake of simplicity, but this needs to be better managed\n    in the future and have it related to the amount/value of parcels being able to distribute.\n    One can also envision a staking system linked to rating of the driver and require less amount staked \n    if an high rating is observed. This will be evaluated after the hackathon and discussed with the\n    carrier partner.\n    For the moment we consider the value of ~200 CHF. For a question of simplicity, we are staking ETH, but\n    this needs to be changed to a stable coin like DAI in order to remove the volatility of the market from\n    the equation. This also needs to be evaluated depending on the network the system will be deployed. \n    Probably, a side chain like xDAI is the best option due to the extreme low fees and fastness.\n    */\n    uint public amountToStake = 30000000000000000;  // ~200CHF in ETH (wei)\n\n    constructor() public {\n    }\n\n    function setAmountToStake(uint newValue) public onlyOwner {\n        amountToStake = newValue;\n    }\n    \n\n    // ---------- Carriers ------------\n\n    modifier isAuthorizedCarrier() {\n        require(authorizedCarrierAddresses[msg.sender] == true, \"Not an authorized Carrier\");\n        _;\n    }\n    \n    // add a kyc validator to the contract\n    function addAuthorizedCarrier(address carrier) public onlyOwner {\n        authorizedCarrierAddresses[carrier] = true;\n    }\n\n    // remove a kyc validator from the contract\n    function removeAuthorizedCarrier(address carrier) public onlyOwner {\n        authorizedCarrierAddresses[carrier] = false;\n    }\n\n    // ---------- KYC ------------\n\n    modifier isAuthorizedKYCValidator() {\n        require(authorizedKYCValidatorsAddresses[msg.sender] == true, \"Not an authorized KYC validator\");\n        _;\n    }\n    \n    modifier isKYCDriver(address driver) {\n        require(drivers[driver].isKYC == true, \"Driver is not KYC\");\n        _;\n    }\n\n    modifier notKYCDriver(address driver) {\n        require(drivers[driver].isKYC == false, \"Driver is already KYC\");\n        _;\n    }\n\n    // add a kyc validator to the contract\n    function addKYCValidator(address kycValidator) public onlyOwner {\n        authorizedKYCValidatorsAddresses[kycValidator] = true;\n    }\n\n    // remove a kyc validator from the contract\n    function removeKYCValidator(address kycValidator) public onlyOwner {\n        authorizedKYCValidatorsAddresses[kycValidator] = false;\n    }\n\n    /*\n    Set a driver as KYC. This is a off-chain process that only some validators can perform.\n    Once the driver is KYC, he can then stake in order to start distributing parcels\n    */\n    function setDriverKYC(address driver) public isAuthorizedKYCValidator notKYCDriver(driver) whenNotPaused {\n        drivers[driver] = Driver(true, 0, DEFAULT_RATING);\n        emit KYCRegistered(driver);\n    }\n\n    /*\n    Returns if a driver is KYC or not\n    */\n    function isDriverKYC(address driver) public view returns (bool){\n        return drivers[driver].isKYC;\n    }\n\n    // ---------- Staking ------------\n\n    modifier hasDriverStaked(address driverAddress) {\n        require(address(driverAddress).balance >= amountToStake, \"Not enough balance staked\");\n        _;\n    }\n\n    // ---------- Parcels ------------\n\n    /* \n    Function triggered when the carrier gives the parcel to a private driver. This will register\n    the parcel and associates it with the driver\n    */\n    function registerParcel(string memory parcelId, address payable driverAddress) public payable isAuthorizedCarrier isKYCDriver(driverAddress) hasDriverStaked(driverAddress) whenNotPaused{\n        parcels[parcelId] = Parcel(parcelId, false, driverAddress, block.timestamp, 0, msg.value);\n        emit ParcelRegistered(parcelId, driverAddress, msg.value);\n    }\n\n    /*\n    Function called when the driver delivers the parcel to the destination. He will be payed by the function at this moment.\n    Some improvements are needed to only pay after a cetain vesting period, in order to allow disputes to happen and \n    eventually use the staked amount from the driver to compensate the receiver or the carrier\n    */\n    function receiveParcel(string memory parcelId) public whenNotPaused  {\n        require(parcels[parcelId].driverAddress == msg.sender, \"Caller is not the driver for this parcel\");\n        parcels[parcelId].isDelivered = true;\n        parcels[parcelId].deliverFinished = block.timestamp;\n\n        uint value = parcels[parcelId].value;\n        address payable driverAddress = parcels[parcelId].driverAddress;\n\n        emit ParcelReceived(parcelId, driverAddress, value);\n        driverAddress.transfer(value);\n    }\n}",
  "sourcePath": "/home/ec2-user/environment/Swiss-Blockchain-Hackathon-19/SmartContracts/contracts/ParcelsNetwork.sol",
  "compiler": {
    "name": "solc",
    "version": "0.5.8+commit.23d335f2.Emscripten.clang"
  },
  "schemaVersion": "3.0.11",
  "updatedAt": "2019-06-28T11:30:27.650Z",
  "devdoc": {
    "methods": {
      "isOwner()": {
        "details": "Returns true if the caller is the current owner."
      },
      "owner()": {
        "details": "Returns the address of the current owner."
      },
      "pause()": {
        "details": "Called by a pauser to pause, triggers stopped state."
      },
      "paused()": {
        "details": "Returns true if the contract is paused, and false otherwise."
      },
      "renounceOwnership()": {
        "details": "Leaves the contract without owner. It will not be possible to call `onlyOwner` functions anymore. Can only be called by the current owner.     * > Note: Renouncing ownership will leave the contract without an owner, thereby removing any functionality that is only available to the owner."
      },
      "transferOwnership(address)": {
        "details": "Transfers ownership of the contract to a new account (`newOwner`). Can only be called by the current owner."
      },
      "unpause()": {
        "details": "Called by a pauser to unpause, returns to normal state."
      }
    }
  },
  "userdoc": {
    "methods": {}
  }
}